:020000023000CC
:10F000000D9472F80D9493F80D9493F80D9493F871
:10F010000D9493F80D9493F80D9493F80D9493F840
:10F020000D9493F80D9493F80D9493F80D9493F830
:10F030000D9493F80D9493F80D9493F80D9493F820
:10F040000D9493F80D9493F80D9493F80D9493F810
:10F050000D9493F80D9493F80D9493F80D9493F800
:10F060000D9493F80D9493F80D9493F80D9493F8F0
:10F070000D9493F80D9493F80D9493F80D9493F8E0
:10F080000D9493F80D9493F80D9493F80D9493F8D0
:10F090000D9493F80D9493F80D9493F80D9493F8C0
:10F0A0000D9493F80D9493F80D9493F80D9493F8B0
:10F0B0000D9493F80D9493F80D9493F80D9493F8A0
:10F0C0000D9493F80D9493F80D9493F80D9493F890
:10F0D0000D9493F80D9493F80D9493F80D9493F880
:10F0E0000D9493F811241FBECFEFD1E2DEBFCDBF48
:10F0F00001E00CBF12E0A0E0B2E0E0EAF8EF03E0CC
:10F100000BBF02C007900D92A833B107D9F723E0D7
:10F11000A8E3B2E001C01D92A134B207E1F70F9459
:10F1200094F90D944EFC0D9400F8F894E0E0F0E0B2
:10F1300080E08CBF1994089590913902913039F490
:10F140009091C00095FFFCCF8093C6000895923047
:10F1500031F49091C80095FFFCCF8093CE000895C4
:10F16000CF93982F8595859585958595805D9F7022
:10F170009A3014F0C7E501C0C0E3C90F0F949CF8A2
:10F180008C2FCF910D949CF8CF92DF92EF92FF924B
:10F19000809139028130D1F4C12CD12C760180913B
:10F1A000C00087FD10C08FEFC81AD80AE80AF80A15
:10F1B00081E0C81680E3D8068AE2E806F10478F315
:10F1C0000F9495F8ECCF8091C6001DC08230D1F429
:10F1D000C12CD12C76018091C80087FD10C08FEF23
:10F1E000C81AD80AE80AF80A81E0C81680E3D806E7
:10F1F0008AE2E806F10478F30F9495F8ECCF809159
:10F20000CE0001C080E0FF90EF90DF90CF90089596
:10F21000CF930F94C4F8C82F0F949CF8C13614F004
:10F2200089EA03C0C0331CF080ED8C0F01C08C2F25
:10F23000CF910895CF930F9408F9C82F0F9408F930
:10F2400090E1C99F800D1124CF91089590913902CA
:10F25000815090F0913039F42091C00027FFFCCF0D
:10F260002091C600F5CF923099F72091C80027FF72
:10F27000FCCF2091CE00ECCF0895CF93C82F0F94F0
:10F28000C4F8803251F484E10F949CF88C2F0F94D1
:10F290009CF880E1CF910D949CF8809138028F5FAB
:10F2A00080933802853019F4CF910D9495F8CF9161
:10F2B00008950F94C4F8803231F484E10F949CF8DF
:10F2C00080E10D949CF8809138028F5F8093380222
:10F2D000853011F40D9495F808958823F1F09091FC
:10F2E0000B01906890930B012FEF3FE593E02150C5
:10F2F00030409040E1F700C0000090910B019F77F3
:10F3000090930B012FEF3FE593E021503040904068
:10F31000E1F700C000008150E0CF0895EBE0F1E09C
:10F320008081805880830895000081E080933902B5
:10F33000E0E0F0E0E49125E02093C4001092C500E5
:10F340001092C00096E09093C20088E18093C100C3
:10F3500030913902323051F42093CC001092CD001C
:10F360001092C8009093CA008093C9006898709A60
:10F3700080910A01806880930A01809139028B5F35
:10F380000F946DF90F94C4F8803309F450C08133A1
:10F3900051F50F94C4F88032E1F484E10F949CF8A5
:10F3A00081E40F949CF886E50F949CF882E50F9415
:10F3B0009CF880E20F949CF889E40F949CF883E514
:10F3C0000F949CF880E5A4C10F94C4F8803209F42E
:10F3D0008EC0809138028F5F80933802853091F61D
:10F3E0000F9495F8CFCF803439F40F94C4F8863851
:10F3F000F0F00F94C4F81BC08134A1F40F94C4F84A
:10F40000803811F482E003C0813821F481E00F9448
:10F410003DF9B8CF823811F480E1F9CF8839B9F5D8
:10F4200083E0F5CF823431F484E10F9426F90F9410
:10F4300059F9A8CF853411F485E0F7CF982F9D7F37
:10F440009035A9F3813599F3853549F40F94C4F8C3
:10F4500080933A020F94C4F880933B02E8CF86353C
:10F46000C1F40F94C4F8803379F40F94C4F80F9466
:10F47000C4F8182F0F94C4F8111102C08EE1C7CF41
:10F48000113021F688E9C3CF83E00F9426F980E09C
:10F49000BECF843609F0CBC00F948EF90F94C4F818
:10F4A00080933D030F94C4F880933C038091400304
:10F4B0008E7F809340030F94C4F8853429F48091A3
:10F4C00040038160809340030CE312E020913C03F1
:10F4D00030913D03C8018C5392408217930708F086
:10F4E00073CF0F94C4F8F80181938F01EFCF80910F
:10F4F000400380FF2AC080913A0290913B02880F1E
:10F50000991F90933B0280933A020CE312E0209102
:10F510003C0330913D03C8018C53924082179307FE
:10F5200008F083C0F80161918F0180913A029091B7
:10F530003B020F9440FC80913A0290913B0201966D
:10F5400090933B0280933A02E2CF80913B0287FF87
:10F5500004C081E080933F0302C010923F0380917A
:10F560003F038BBF80913A0290913B02880F991F15
:10F5700090933B0280933A0280913C0380FF09C044
:10F5800080913C0390913D03019690933D038093BD
:10F590003C03F894F999FECF1127E0913A02F091DB
:10F5A0003B02CCE3D2E080913C0390913D031030CC
:10F5B00091F40091570001700130D9F303E00093FA
:10F5C0005700E8950091570001700130D9F301E12F
:10F5D00000935700E8950990199000915700017029
:10F5E0000130D9F301E000935700E89513951038E6
:10F5F00098F011270091570001700130D9F305E010
:10F6000000935700E8950091570001700130D9F33D
:10F6100001E100935700E8953296029709F0C7CFB1
:10F62000103011F00296E5CF112484E171C08437C7
:10F6300009F05DC00F94C4F880933D030F94C4F8A3
:10F6400080933C0320913A0230913B028091400329
:10F6500037FF02C0826001C08D7F80934003220F7C
:10F66000331F30933B0220933A020F94C4F89091D9
:10F670004003853411F4916001C09E7F9093400354
:10F680000F94C4F8803209F07DCE84E10F949CF889
:10F6900000E010E080913C0390913D0308171907AA
:10F6A00008F038C080914003E0913A02F0913B02AB
:10F6B00080FF04C0CF010F9438FC0BC081FD02C055
:10F6C000849107C0CF01A0E0B0E01196ABBFFC0170
:10F6D00087910F949CF880913A0290913B02019699
:10F6E00090933B0280933A020F5F1F4FD3CF853731
:10F6F000A9F40F94C4F8803209F06BCE84E10F9422
:10F700009CF88EE10F949CF888E90F949CF881E0B6
:10F710000F949CF880E10F949CF834CE863709F45E
:10F72000B6CE813209F055CE0F94C4F8813209F07B
:10F7300029CE0F94C4F8813209F024CE80910A01B9
:10F74000806880930A0180910B018F7780930B0171
:10F7500010923E03E0913E03F0E0EF5FFD4F8081A9
:10F760008823A1F00F949CF880913E038F5F8093D3
:10F770003E03F0CF8091090187FF1CC080910B01EF
:10F780008F7780930B0181E30F949CF88AE00F94AC
:10F790009CF88DE00F949CF88AE30F949CF880E22B
:10F7A0000F949CF80F94C4F8182F0F949CF81437FA
:10F7B00041F4E0CF80910B01806880930B0180E3DE
:10F7C000E3CF1237B9F40F94C4F80F949CF80F9458
:10F7D0001AF9182F0F941AF9082F8DE30F949CF83B
:10F7E000E12FF0E0FE2FEE27E00FF11D80810F9456
:10F7F000B0F8CCCF1737C1F40F94C4F80F949CF82D
:10F800000F941AF9182F0F941AF9082F0F94C4F8AF
:10F810000F949CF80F941AF9E12FF0E0FE2FEE27D9
:10F82000E00FF11D8083B2CF153729F40F94C4F88F
:10F830000F949CF8FBCF1236A9F482E60F949CF843
:10F8400085E70F949CF883E70F949CF880E885BFC8
:10F850001092740010927500E0E0F1E18191309710
:10F86000E9F7FACF1A3609F091CF0F9495F88ECFB9
:10F87000F999FECF92BD81BDF89A992780B5089578
:10F88000262FF999FECF1FBA92BD81BD20BD0FB6BC
:10F89000F894FA9AF99A0FBE01960895F894FFCF5A
:10F8A0008041546D656761424F4F54202F20417253
:10F8B0006475696E6F204D656761202D202843298E
:10F8C0002041726475696E6F204C4C43202D2030AE
:08F8D00039303933300A0D0014
:040000033000F000D9
:00000001FF
